{
  "contractName": "Licensor",
  "abi": [
    {
      "constant": true,
      "inputs": [],
      "name": "owner",
      "outputs": [
        {
          "name": "",
          "type": "address"
        }
      ],
      "payable": false,
      "stateMutability": "view",
      "type": "function"
    },
    {
      "constant": false,
      "inputs": [
        {
          "name": "newOwner",
          "type": "address"
        }
      ],
      "name": "transferOwnership",
      "outputs": [],
      "payable": false,
      "stateMutability": "nonpayable",
      "type": "function"
    },
    {
      "inputs": [
        {
          "name": "_omiEndpointURL",
          "type": "string"
        },
        {
          "name": "_licensorName",
          "type": "string"
        }
      ],
      "payable": false,
      "stateMutability": "nonpayable",
      "type": "constructor"
    },
    {
      "anonymous": false,
      "inputs": [
        {
          "indexed": true,
          "name": "previousOwner",
          "type": "address"
        },
        {
          "indexed": true,
          "name": "newOwner",
          "type": "address"
        }
      ],
      "name": "OwnershipTransferred",
      "type": "event"
    },
    {
      "constant": false,
      "inputs": [
        {
          "name": "_isrcs",
          "type": "string[]"
        }
      ],
      "name": "RegisterRecordings",
      "outputs": [
        {
          "name": "",
          "type": "uint256"
        }
      ],
      "payable": false,
      "stateMutability": "nonpayable",
      "type": "function"
    },
    {
      "constant": false,
      "inputs": [
        {
          "name": "_userID",
          "type": "string"
        },
        {
          "name": "_recordingID",
          "type": "uint256"
        },
        {
          "name": "_licenseType",
          "type": "uint8"
        }
      ],
      "name": "IssueLicense",
      "outputs": [
        {
          "name": "",
          "type": "uint256"
        }
      ],
      "payable": false,
      "stateMutability": "nonpayable",
      "type": "function"
    },
    {
      "constant": false,
      "inputs": [
        {
          "name": "_videoID",
          "type": "string"
        },
        {
          "name": "_licenseID",
          "type": "uint256"
        }
      ],
      "name": "LinkToLicense",
      "outputs": [],
      "payable": false,
      "stateMutability": "nonpayable",
      "type": "function"
    },
    {
      "constant": false,
      "inputs": [
        {
          "name": "_licenseID",
          "type": "uint256"
        }
      ],
      "name": "RevokeLicense",
      "outputs": [],
      "payable": false,
      "stateMutability": "nonpayable",
      "type": "function"
    },
    {
      "constant": true,
      "inputs": [
        {
          "name": "_licenseID",
          "type": "uint256"
        }
      ],
      "name": "GetLicense",
      "outputs": [
        {
          "name": "",
          "type": "uint256"
        },
        {
          "name": "",
          "type": "string"
        },
        {
          "name": "",
          "type": "uint256"
        },
        {
          "name": "",
          "type": "uint8"
        },
        {
          "name": "",
          "type": "uint8"
        },
        {
          "name": "",
          "type": "string"
        }
      ],
      "payable": false,
      "stateMutability": "view",
      "type": "function"
    },
    {
      "constant": true,
      "inputs": [
        {
          "name": "_recordingID",
          "type": "uint256"
        }
      ],
      "name": "GetRecording",
      "outputs": [
        {
          "name": "",
          "type": "uint256"
        },
        {
          "name": "",
          "type": "string"
        }
      ],
      "payable": false,
      "stateMutability": "view",
      "type": "function"
    },
    {
      "constant": true,
      "inputs": [
        {
          "name": "_isrc",
          "type": "string"
        }
      ],
      "name": "GetRecordingByISRC",
      "outputs": [
        {
          "name": "",
          "type": "uint256"
        },
        {
          "name": "",
          "type": "string"
        }
      ],
      "payable": false,
      "stateMutability": "view",
      "type": "function"
    },
    {
      "constant": true,
      "inputs": [
        {
          "name": "_videoID",
          "type": "string"
        }
      ],
      "name": "GetLicensesByVideoID",
      "outputs": [
        {
          "name": "",
          "type": "string"
        }
      ],
      "payable": false,
      "stateMutability": "view",
      "type": "function"
    },
    {
      "constant": true,
      "inputs": [
        {
          "name": "_userID",
          "type": "string"
        }
      ],
      "name": "GetLicensesByUserID",
      "outputs": [
        {
          "name": "",
          "type": "string"
        }
      ],
      "payable": false,
      "stateMutability": "view",
      "type": "function"
    }
  ],
  "bytecode": "0x60806040523480156200001157600080fd5b5060405162001fcc38038062001fcc8339810180604052620000379190810190620001be565b336000806101000a81548173ffffffffffffffffffffffffffffffffffffffff021916908373ffffffffffffffffffffffffffffffffffffffff16021790555081600190805190602001906200008f929190620000b1565b508060029080519060200190620000a8929190620000b1565b505050620002c2565b828054600181600116156101000203166002900490600052602060002090601f016020900481019282601f10620000f457805160ff191683800117855562000125565b8280016001018555821562000125579182015b828111156200012457825182559160200191906001019062000107565b5b50905062000134919062000138565b5090565b6200015d91905b80821115620001595760008160009055506001016200013f565b5090565b90565b600082601f83011215156200017457600080fd5b81516200018b62000185826200025f565b62000231565b91508082526020830160208301858383011115620001a857600080fd5b620001b58382846200028c565b50505092915050565b60008060408385031215620001d257600080fd5b600083015167ffffffffffffffff811115620001ed57600080fd5b620001fb8582860162000160565b925050602083015167ffffffffffffffff8111156200021957600080fd5b620002278582860162000160565b9150509250929050565b6000604051905081810181811067ffffffffffffffff821117156200025557600080fd5b8060405250919050565b600067ffffffffffffffff8211156200027757600080fd5b601f19601f8301169050602081019050919050565b60005b83811015620002ac5780820151818401526020810190506200028f565b83811115620002bc576000848401525b50505050565b611cfa80620002d26000396000f3006080604052600436106100af576000357c0100000000000000000000000000000000000000000000000000000000900463ffffffff1680631d8baece146100b45780632d6fd509146100dd57806331e4bd0b1461011a578063518da3e01461015c5780635add00ac146101995780638da5cb5b146101d7578063be4a696f14610202578063c24db6b81461022b578063f14251cf14610269578063f2fde38b146102a6578063fa28803b146102cf575b600080fd5b3480156100c057600080fd5b506100db60048036036100d691908101906118c1565b61030c565b005b3480156100e957600080fd5b5061010460048036036100ff9190810190611743565b6103af565b6040516101119190611a72565b60405180910390f35b34801561012657600080fd5b50610141600480360361013c91908101906118c1565b610557565b60405161015396959493929190611ad8565b60405180910390f35b34801561016857600080fd5b50610183600480360361017e9190810190611784565b610761565b60405161019091906119e4565b60405180910390f35b3480156101a557600080fd5b506101c060048036036101bb9190810190611784565b610a6f565b6040516101ce929190611aa8565b60405180910390f35b3480156101e357600080fd5b506101ec610bd3565b6040516101f991906119c9565b60405180910390f35b34801561020e57600080fd5b5061022960048036036102249190810190611806565b610bf8565b005b34801561023757600080fd5b50610252600480360361024d91908101906118c1565b610cec565b604051610260929190611aa8565b60405180910390f35b34801561027557600080fd5b50610290600480360361028b9190810190611784565b610de5565b60405161029d91906119e4565b60405180910390f35b3480156102b257600080fd5b506102cd60048036036102c8919081019061171a565b6110f3565b005b3480156102db57600080fd5b506102f660048036036102f1919081019061185a565b611248565b6040516103039190611a72565b60405180910390f35b6000809054906101000a900473ffffffffffffffffffffffffffffffffffffffff1673ffffffffffffffffffffffffffffffffffffffff163373ffffffffffffffffffffffffffffffffffffffff1614151561036757600080fd5b6002600381111561037457fe5b60058281548110151561038357fe5b906000526020600020906005020160030160006101000a81548160ff021916908360ff16021790555050565b60008060006103bc61146a565b6000809054906101000a900473ffffffffffffffffffffffffffffffffffffffff1673ffffffffffffffffffffffffffffffffffffffff163373ffffffffffffffffffffffffffffffffffffffff1614151561041757600080fd5b6004805490509250600091505b845182101561054f576040805190810160405280848152602001868481518110151561044c57fe5b906020019060200201518152509050600481908060018154018082558091505090600182039060005260206000209060020201600090919290919091506000820151816000015560208201518160010190805190602001906104af929190611484565b5050505082600386848151811015156104c457fe5b906020019060200201516040518082805190602001908083835b60208310151561050357805182526020820191506020810190506020830392506104de565b6001836020036101000a03801982511681845116808217855250505050505090500191505090815260200160405180910390208190555082806001019350508180600101925050610424565b505050919050565b600060606000806000606061056a611504565b60058881548110151561057957fe5b906000526020600020906005020160c0604051908101604052908160008201548152602001600182018054600181600116156101000203166002900480601f0160208091040260200160405190810160405280929190818152602001828054600181600116156101000203166002900480156106365780601f1061060b57610100808354040283529160200191610636565b820191906000526020600020905b81548152906001019060200180831161061957829003601f168201915b50505050508152602001600282015481526020016003820160009054906101000a900460ff1660ff1660ff1681526020016003820160019054906101000a900460ff1660ff1660ff168152602001600482018054600181600116156101000203166002900480601f01602080910402602001604051908101604052809291908181526020018280546001816001161561010002031660029004801561071c5780601f106106f15761010080835404028352916020019161071c565b820191906000526020600020905b8154815290600101906020018083116106ff57829003601f168201915b5050505050815250509050806000015181602001518260400151836060015184608001518560a001518494508090509650965096509650965096505091939550919395565b606080606060006006856040518082805190602001908083835b6020831015156107a0578051825260208201915060208101905060208303925061077b565b6001836020036101000a038019825116818451168082178552505050505050905001915050908152602001604051809103902080548060200260200160405190810160405280929190818152602001828054801561081d57602002820191906000526020600020905b815481526020019060010190808311610809575b5050505050925060206040519081016040528060008152509150600090505b8251811015610a645773__Utils_________________________________63d824ccf373__Utils_________________________________63d824ccf3856040518263ffffffff167c01000000000000000000000000000000000000000000000000000000000281526004016108b29190611a3d565b60006040518083038186803b1580156108ca57600080fd5b505af41580156108de573d6000803e3d6000fd5b505050506040513d6000823e3d601f19601f8201168201806040525061090791908101906117c5565b73__Utils_________________________________63e939567987600081518110151561093057fe5b906020019060200201516040518263ffffffff167c01000000000000000000000000000000000000000000000000000000000281526004016109729190611a8d565b60006040518083038186803b15801561098a57600080fd5b505af415801561099e573d6000803e3d6000fd5b505050506040513d6000823e3d601f19601f820116820180604052506109c791908101906117c5565b6040518363ffffffff167c0100000000000000000000000000000000000000000000000000000000028152600401610a00929190611a06565b60006040518083038186803b158015610a1857600080fd5b505af4158015610a2c573d6000803e3d6000fd5b505050506040513d6000823e3d601f19601f82011682018060405250610a5591908101906117c5565b9150808060010191505061083c565b819350505050919050565b60006060610a7b61146a565b60046003856040518082805190602001908083835b602083101515610ab55780518252602082019150602081019050602083039250610a90565b6001836020036101000a038019825116818451168082178552505050505050905001915050908152602001604051809103902054815481101515610af557fe5b906000526020600020906002020160408051908101604052908160008201548152602001600182018054600181600116156101000203166002900480601f016020809104026020016040519081016040528092919081815260200182805460018160011615610100020316600290048015610bb15780601f10610b8657610100808354040283529160200191610bb1565b820191906000526020600020905b815481529060010190602001808311610b9457829003601f168201915b5050505050815250509050806000015181602001518090509250925050915091565b6000809054906101000a900473ffffffffffffffffffffffffffffffffffffffff1681565b6000809054906101000a900473ffffffffffffffffffffffffffffffffffffffff1673ffffffffffffffffffffffffffffffffffffffff163373ffffffffffffffffffffffffffffffffffffffff16141515610c5357600080fd5b6007826040518082805190602001908083835b602083101515610c8b5780518252602082019150602081019050602083039250610c66565b6001836020036101000a03801982511681845116808217855250505050505090500191505090815260200160405180910390208190806001815401808255809150509060018203906000526020600020016000909192909190915055505050565b60006060610cf861146a565b600484815481101515610d0757fe5b906000526020600020906002020160408051908101604052908160008201548152602001600182018054600181600116156101000203166002900480601f016020809104026020016040519081016040528092919081815260200182805460018160011615610100020316600290048015610dc35780601f10610d9857610100808354040283529160200191610dc3565b820191906000526020600020905b815481529060010190602001808311610da657829003601f168201915b5050505050815250509050806000015181602001518090509250925050915091565b606080606060006007856040518082805190602001908083835b602083101515610e245780518252602082019150602081019050602083039250610dff565b6001836020036101000a0380198251168184511680821785525050505050509050019150509081526020016040518091039020805480602002602001604051908101604052809291908181526020018280548015610ea157602002820191906000526020600020905b815481526020019060010190808311610e8d575b5050505050925060206040519081016040528060008152509150600090505b82518110156110e85773__Utils_________________________________63d824ccf373__Utils_________________________________63d824ccf3856040518263ffffffff167c0100000000000000000000000000000000000000000000000000000000028152600401610f369190611a3d565b60006040518083038186803b158015610f4e57600080fd5b505af4158015610f62573d6000803e3d6000fd5b505050506040513d6000823e3d601f19601f82011682018060405250610f8b91908101906117c5565b73__Utils_________________________________63e9395679876000815181101515610fb457fe5b906020019060200201516040518263ffffffff167c0100000000000000000000000000000000000000000000000000000000028152600401610ff69190611a8d565b60006040518083038186803b15801561100e57600080fd5b505af4158015611022573d6000803e3d6000fd5b505050506040513d6000823e3d601f19601f8201168201806040525061104b91908101906117c5565b6040518363ffffffff167c0100000000000000000000000000000000000000000000000000000000028152600401611084929190611a06565b60006040518083038186803b15801561109c57600080fd5b505af41580156110b0573d6000803e3d6000fd5b505050506040513d6000823e3d601f19601f820116820180604052506110d991908101906117c5565b91508080600101915050610ec0565b819350505050919050565b6000809054906101000a900473ffffffffffffffffffffffffffffffffffffffff1673ffffffffffffffffffffffffffffffffffffffff163373ffffffffffffffffffffffffffffffffffffffff1614151561114e57600080fd5b600073ffffffffffffffffffffffffffffffffffffffff168173ffffffffffffffffffffffffffffffffffffffff161415151561118a57600080fd5b8073ffffffffffffffffffffffffffffffffffffffff166000809054906101000a900473ffffffffffffffffffffffffffffffffffffffff1673ffffffffffffffffffffffffffffffffffffffff167f8be0079c531659141344cd1fd0a4f28419497f9722a3daafe3b4186f6b6457e060405160405180910390a3806000806101000a81548173ffffffffffffffffffffffffffffffffffffffff021916908373ffffffffffffffffffffffffffffffffffffffff16021790555050565b600080611253611504565b6000809054906101000a900473ffffffffffffffffffffffffffffffffffffffff1673ffffffffffffffffffffffffffffffffffffffff163373ffffffffffffffffffffffffffffffffffffffff161415156112ae57600080fd5b600580549050915060c060405190810160405280838152602001878152602001868152602001600060038111156112e157fe5b60ff1681526020018560ff168152602001602060405190810160405280600081525081525090506005819080600181540180825580915050906001820390600052602060002090600502016000909192909190915060008201518160000155602082015181600101908051906020019061135c929190611484565b506040820151816002015560608201518160030160006101000a81548160ff021916908360ff16021790555060808201518160030160016101000a81548160ff021916908360ff16021790555060a08201518160040190805190602001906113c5929190611484565b505050506006866040518082805190602001908083835b60208310151561140157805182526020820191506020810190506020830392506113dc565b6001836020036101000a038019825116818451168082178552505050505050905001915050908152602001604051809103902082908060018154018082558091505090600182039060005260206000200160009091929091909150555081925050509392505050565b604080519081016040528060008152602001606081525090565b828054600181600116156101000203166002900490600052602060002090601f016020900481019282601f106114c557805160ff19168380011785556114f3565b828001600101855582156114f3579182015b828111156114f25782518255916020019190600101906114d7565b5b5090506115009190611541565b5090565b60c060405190810160405280600081526020016060815260200160008152602001600060ff168152602001600060ff168152602001606081525090565b61156391905b8082111561155f576000816000905550600101611547565b5090565b90565b60006115728235611c36565b905092915050565b600082601f830112151561158d57600080fd5b81356115a061159b82611b74565b611b47565b9150818183526020840193506020810190508360005b838110156115e657813586016115cc88826115f0565b8452602084019350602083019250506001810190506115b6565b5050505092915050565b600082601f830112151561160357600080fd5b813561161661161182611b9c565b611b47565b9150808252602083016020830185838301111561163257600080fd5b61163d838284611c6d565b50505092915050565b600082601f830112151561165957600080fd5b813561166c61166782611bc8565b611b47565b9150808252602083016020830185838301111561168857600080fd5b611693838284611c6d565b50505092915050565b600082601f83011215156116af57600080fd5b81516116c26116bd82611bc8565b611b47565b915080825260208301602083018583830111156116de57600080fd5b6116e9838284611c7c565b50505092915050565b60006116fe8235611c56565b905092915050565b60006117128235611c60565b905092915050565b60006020828403121561172c57600080fd5b600061173a84828501611566565b91505092915050565b60006020828403121561175557600080fd5b600082013567ffffffffffffffff81111561176f57600080fd5b61177b8482850161157a565b91505092915050565b60006020828403121561179657600080fd5b600082013567ffffffffffffffff8111156117b057600080fd5b6117bc84828501611646565b91505092915050565b6000602082840312156117d757600080fd5b600082015167ffffffffffffffff8111156117f157600080fd5b6117fd8482850161169c565b91505092915050565b6000806040838503121561181957600080fd5b600083013567ffffffffffffffff81111561183357600080fd5b61183f85828601611646565b9250506020611850858286016116f2565b9150509250929050565b60008060006060848603121561186f57600080fd5b600084013567ffffffffffffffff81111561188957600080fd5b61189586828701611646565b93505060206118a6868287016116f2565b92505060406118b786828701611706565b9150509250925092565b6000602082840312156118d357600080fd5b60006118e1848285016116f2565b91505092915050565b6118f381611bff565b82525050565b600061190482611bf4565b808452611918816020860160208601611c7c565b61192181611caf565b602085010191505092915050565b600061193a82611bf4565b80845261194e816020860160208601611c7c565b61195781611caf565b602085010191505092915050565b6000600182527f2c000000000000000000000000000000000000000000000000000000000000006020830152604082019050919050565b6119a581611c1f565b82525050565b6119b481611c1f565b82525050565b6119c381611c29565b82525050565b60006020820190506119de60008301846118ea565b92915050565b600060208201905081810360008301526119fe81846118f9565b905092915050565b60006040820190508181036000830152611a20818561192f565b90508181036020830152611a34818461192f565b90509392505050565b60006040820190508181036000830152611a57818461192f565b90508181036020830152611a6a81611965565b905092915050565b6000602082019050611a87600083018461199c565b92915050565b6000602082019050611aa260008301846119ab565b92915050565b6000604082019050611abd600083018561199c565b8181036020830152611acf81846118f9565b90509392505050565b600060c082019050611aed600083018961199c565b8181036020830152611aff81886118f9565b9050611b0e604083018761199c565b611b1b60608301866119ba565b611b2860808301856119ba565b81810360a0830152611b3a81846118f9565b9050979650505050505050565b6000604051905081810181811067ffffffffffffffff82111715611b6a57600080fd5b8060405250919050565b600067ffffffffffffffff821115611b8b57600080fd5b602082029050602081019050919050565b600067ffffffffffffffff821115611bb357600080fd5b601f19601f8301169050602081019050919050565b600067ffffffffffffffff821115611bdf57600080fd5b601f19601f8301169050602081019050919050565b600081519050919050565b600073ffffffffffffffffffffffffffffffffffffffff82169050919050565b6000819050919050565b600060ff82169050919050565b600073ffffffffffffffffffffffffffffffffffffffff82169050919050565b6000819050919050565b600060ff82169050919050565b82818337600083830152505050565b60005b83811015611c9a578082015181840152602081019050611c7f565b83811115611ca9576000848401525b50505050565b6000601f19601f83011690509190505600a265627a7a72305820a78697d5ea43dc366aa06c0e653a6aa4c4b65174abec9cd897abd7a3340fcd386c6578706572696d656e74616cf50037",
  "source": "pragma solidity ^0.4.19;\npragma experimental ABIEncoderV2;\n\nimport \"./ILicensor.sol\";\nimport \"./Ownable.sol\";\nimport \"./Utils.sol\";\n\ncontract Licensor is ILicensor, Ownable {\n\n    string omiEndpoint;\n    string licensorName;\n\n    struct Recording {\n        uint recordingID;\n        string isrc;\n    }\n        \n    enum LicenseStatus { PURCHASED, LINKED, REVOKED, EXPIRED }\n    enum LicenseType { NONCOMMERCIAL, COMMERCIAL }\n\n    struct License {\n        uint licenseID;\n        string userID;\n        uint recordingID;\n        uint8 status;\n        uint8 licenseType;\n        string videoID;\n    }\n\n    // isrc to recordingID\n    mapping (string => uint) isrcToRecordingID;\n    \n    // array of Recordings indexed by their ID\n    Recording[] recordings; \n\n    // array of Licenses indexed by their ID\n    License[] licenses;\n\n    // userID to LicensesIDs\n    mapping (string => uint[]) userIDToLicenseIDs;\n\n    // videoID to LicenseIDs\n    mapping (string => uint[]) videoIDtoLicenseIDs;\n\n    constructor(string _omiEndpointURL, string _licensorName) public {\n        omiEndpoint = _omiEndpointURL;\n        licensorName = _licensorName;\n    }\n\n    // ------------- PUBLIC WRITES ----------------\n\n    function RegisterRecordings(string[] _isrcs) public onlyOwner returns (uint) {\n        uint recordingID = recordings.length;\n        for (uint i = 0; i < _isrcs.length; i++) {\n            Recording memory r = Recording({\n                recordingID: recordingID,\n                isrc: _isrcs[i]\n            });\n            recordings.push(r);\n            isrcToRecordingID[_isrcs[i]] = recordingID;\n            recordingID++;\n        }\n    }\n    \n    function IssueLicense(string _userID, uint _recordingID, uint8 _licenseType) public onlyOwner returns (uint) {\n        uint licenseID = licenses.length;\n        License memory l = License({\n            licenseID: licenseID,\n            userID: _userID,\n            recordingID: _recordingID,\n            status: uint8(LicenseStatus.PURCHASED),\n            licenseType: _licenseType,\n            videoID: \"\"\n        });\n        licenses.push(l);\n        userIDToLicenseIDs[_userID].push(licenseID);\n        \n        return licenseID;\n    }\n\n    function LinkToLicense(string _videoID, uint _licenseID) public onlyOwner {\n        videoIDtoLicenseIDs[_videoID].push(_licenseID);\n    }\n\n    function RevokeLicense(uint _licenseID) public onlyOwner {\n        licenses[_licenseID].status = uint8(LicenseStatus.REVOKED);\n    }\n\n    // ------------- PUBLIC READS ----------------\n\n    function GetLicense(uint _licenseID) view public returns (uint, string, uint, uint8, uint8, string) {\n        License memory l = licenses[_licenseID];\n        return (\n            l.licenseID,\n            l.userID,\n            l.recordingID,\n            l.status,\n            l.licenseType,\n            l.videoID\n        );\n    }\n\n    function GetRecording(uint _recordingID) view public returns (uint, string) {\n        Recording memory r = recordings[_recordingID];\n        return (\n            r.recordingID,\n            r.isrc\n        );\n    }\n    \n    function GetRecordingByISRC(string _isrc) view public returns (uint, string) {\n        Recording memory r = recordings[isrcToRecordingID[_isrc]];\n        return (\n            r.recordingID,\n            r.isrc\n        );\n    }\n\n    function GetLicensesByVideoID(string _videoID) view public returns (string)  {\n        uint[] memory ls = videoIDtoLicenseIDs[_videoID];\n        string memory s = \"\";\n        for (uint i = 0; i < ls.length; i++) {\n            s = Utils.strcat(Utils.strcat(s, \",\"), Utils.uintToString(ls[0]));\n        }\n        return s;\n    }\n\n    function GetLicensesByUserID(string _userID) view public returns (string) {\n        uint[] memory ls = userIDToLicenseIDs[_userID];\n        string memory s = \"\";\n        for (uint i = 0; i < ls.length; i++) {\n            s = Utils.strcat(Utils.strcat(s, \",\"), Utils.uintToString(ls[0]));\n        }\n        return s;\n    }\n}\n",
  "sourcePath": "/Users/mikechristensen/Code/rb-omi-hack/eth/contracts/Licensor.sol",
  "compiler": {
    "name": "solc",
    "version": "0.4.23+commit.124ca40d.Emscripten.clang"
  },
  "schemaVersion": "2.0.0",
  "updatedAt": "2018-04-26T13:26:49.521Z"
}