{
  "contractName": "Utils",
  "abi": [
    {
      "constant": true,
      "inputs": [
        {
          "name": "s1",
          "type": "string"
        },
        {
          "name": "s2",
          "type": "string"
        }
      ],
      "name": "strcat",
      "outputs": [
        {
          "name": "",
          "type": "string"
        }
      ],
      "payable": false,
      "stateMutability": "pure",
      "type": "function"
    },
    {
      "constant": true,
      "inputs": [
        {
          "name": "v",
          "type": "uint256"
        }
      ],
      "name": "uintToString",
      "outputs": [
        {
          "name": "str",
          "type": "string"
        }
      ],
      "payable": false,
      "stateMutability": "pure",
      "type": "function"
    }
  ],
  "bytecode": "0x610567610030600b82828239805160001a6073146000811461002057610022565bfe5b5030600052607381538281f3007300000000000000000000000000000000000000003014608060405260043610610063576000357c0100000000000000000000000000000000000000000000000000000000900463ffffffff168063d824ccf314610068578063e939567914610183575b600080fd5b610108600480360381019080803590602001908201803590602001908080601f0160208091040260200160405190810160405280939291908181526020018383808284378201915050505050509192919290803590602001908201803590602001908080601f016020809104026020016040519081016040528093929190818152602001838380828437820191505050505050919291929050505061021c565b6040518080602001828103825283818151815260200191508051906020019080838360005b8381101561014857808201518184015260208101905061012d565b50505050905090810190601f1680156101755780820380516001836020036101000a031916815260200191505b509250505060405180910390f35b6101a160048036038101908080359060200190929190505050610249565b6040518080602001828103825283818151815260200191508051906020019080838360005b838110156101e15780820151818401526020810190506101c6565b50505050905090810190601f16801561020e5780820380516001836020036101000a031916815260200191505b509250505060405180910390f35b606061024161022a83610426565b61023385610426565b61045490919063ffffffff16565b905092915050565b6060600060606000806060600060649550856040519080825280601f01601f19166020018201604052801561028d5781602001602082028038833980820191505090505b509450600093505b60008814151561032c57600a888115156102ab57fe5b069250600a888115156102ba57fe5b049750826030017f01000000000000000000000000000000000000000000000000000000000000000285858060010196508151811015156102f757fe5b9060200101907effffffffffffffffffffffffffffffffffffffffffffffffffffffffffffff1916908160001a905350610295565b836040519080825280601f01601f19166020018201604052801561035f5781602001602082028038833980820191505090505b509150600090505b83811015610418578460018286030381518110151561038257fe5b9060200101517f010000000000000000000000000000000000000000000000000000000000000090047f01000000000000000000000000000000000000000000000000000000000000000282828151811015156103db57fe5b9060200101907effffffffffffffffffffffffffffffffffffffffffffffffffffffffffffff1916908160001a9053508080600101915050610367565b819650505050505050919050565b61042e610521565b600060208301905060408051908101604052808451815260200182815250915050919050565b606080600083600001518560000151016040519080825280601f01601f1916602001820160405280156104965781602001602082028038833980820191505090505b5091506020820190506104b281866020015187600001516104d6565b6104cb85600001518201856020015186600001516104d6565b819250505092915050565b60005b6020821015156104fe57825184526020840193506020830192506020820391506104d9565b6001826020036101000a0390508019835116818551168181178652505050505050565b6040805190810160405280600081526020016000815250905600a165627a7a72305820c66cf92e006c33448b4ed543b9add1a44dc28aaa7a9eb180d0ace6ed4cfe46b10029",
  "source": "pragma solidity ^0.4.19;\n\nimport \"./dependencies/strings.sol\";\n\nlibrary Utils {\n    using strings for *;\n\n    function strcat(string s1, string s2) pure public returns (string) {\n        return s1.toSlice().concat(s2.toSlice());\n    }\n\n    function uintToString(uint v) pure public returns (string str) {\n        uint maxlength = 100;\n        bytes memory reversed = new bytes(maxlength);\n        uint i = 0;\n        while (v != 0) {\n            uint remainder = v % 10;\n            v = v / 10;\n            reversed[i++] = byte(48 + remainder);\n        }\n        bytes memory s = new bytes(i);\n        for (uint j = 0; j < i; j++) {\n            s[j] = reversed[i - j - 1];\n        }\n        str = string(s);\n    }\n}",
  "sourcePath": "/Users/mikechristensen/Code/rb-omi-hack/eth/contracts/Utils.sol",
  "compiler": {
    "name": "solc",
    "version": "0.4.23+commit.124ca40d.Emscripten.clang"
  },
  "schemaVersion": "2.0.0",
  "updatedAt": "2018-04-26T13:26:49.523Z"
}